{
  "contractName": "Collection",
  "abi": [
    {
      "inputs": [],
      "stateMutability": "nonpayable",
      "type": "constructor"
    },
    {
      "anonymous": false,
      "inputs": [
        {
          "indexed": true,
          "internalType": "address",
          "name": "owner",
          "type": "address"
        },
        {
          "indexed": true,
          "internalType": "address",
          "name": "approved",
          "type": "address"
        },
        {
          "indexed": true,
          "internalType": "uint256",
          "name": "tokenId",
          "type": "uint256"
        }
      ],
      "name": "Approval",
      "type": "event"
    },
    {
      "anonymous": false,
      "inputs": [
        {
          "indexed": true,
          "internalType": "address",
          "name": "owner",
          "type": "address"
        },
        {
          "indexed": true,
          "internalType": "address",
          "name": "operator",
          "type": "address"
        },
        {
          "indexed": false,
          "internalType": "bool",
          "name": "approved",
          "type": "bool"
        }
      ],
      "name": "ApprovalForAll",
      "type": "event"
    },
    {
      "anonymous": false,
      "inputs": [
        {
          "indexed": true,
          "internalType": "address",
          "name": "previousOwner",
          "type": "address"
        },
        {
          "indexed": true,
          "internalType": "address",
          "name": "newOwner",
          "type": "address"
        }
      ],
      "name": "OwnershipTransferred",
      "type": "event"
    },
    {
      "anonymous": false,
      "inputs": [
        {
          "indexed": true,
          "internalType": "address",
          "name": "from",
          "type": "address"
        },
        {
          "indexed": true,
          "internalType": "address",
          "name": "to",
          "type": "address"
        },
        {
          "indexed": true,
          "internalType": "uint256",
          "name": "tokenId",
          "type": "uint256"
        }
      ],
      "name": "Transfer",
      "type": "event"
    },
    {
      "inputs": [
        {
          "internalType": "address",
          "name": "to",
          "type": "address"
        },
        {
          "internalType": "uint256",
          "name": "tokenId",
          "type": "uint256"
        }
      ],
      "name": "approve",
      "outputs": [],
      "stateMutability": "nonpayable",
      "type": "function"
    },
    {
      "inputs": [
        {
          "internalType": "address",
          "name": "owner",
          "type": "address"
        }
      ],
      "name": "balanceOf",
      "outputs": [
        {
          "internalType": "uint256",
          "name": "",
          "type": "uint256"
        }
      ],
      "stateMutability": "view",
      "type": "function"
    },
    {
      "inputs": [],
      "name": "baseExtension",
      "outputs": [
        {
          "internalType": "string",
          "name": "",
          "type": "string"
        }
      ],
      "stateMutability": "view",
      "type": "function"
    },
    {
      "inputs": [],
      "name": "baseURI",
      "outputs": [
        {
          "internalType": "string",
          "name": "",
          "type": "string"
        }
      ],
      "stateMutability": "view",
      "type": "function"
    },
    {
      "inputs": [
        {
          "internalType": "uint256",
          "name": "tokenId",
          "type": "uint256"
        }
      ],
      "name": "getApproved",
      "outputs": [
        {
          "internalType": "address",
          "name": "",
          "type": "address"
        }
      ],
      "stateMutability": "view",
      "type": "function"
    },
    {
      "inputs": [
        {
          "internalType": "address",
          "name": "owner",
          "type": "address"
        },
        {
          "internalType": "address",
          "name": "operator",
          "type": "address"
        }
      ],
      "name": "isApprovedForAll",
      "outputs": [
        {
          "internalType": "bool",
          "name": "",
          "type": "bool"
        }
      ],
      "stateMutability": "view",
      "type": "function"
    },
    {
      "inputs": [],
      "name": "maxMintAmount",
      "outputs": [
        {
          "internalType": "uint256",
          "name": "",
          "type": "uint256"
        }
      ],
      "stateMutability": "view",
      "type": "function"
    },
    {
      "inputs": [],
      "name": "maxSupply",
      "outputs": [
        {
          "internalType": "uint256",
          "name": "",
          "type": "uint256"
        }
      ],
      "stateMutability": "view",
      "type": "function"
    },
    {
      "inputs": [],
      "name": "name",
      "outputs": [
        {
          "internalType": "string",
          "name": "",
          "type": "string"
        }
      ],
      "stateMutability": "view",
      "type": "function"
    },
    {
      "inputs": [],
      "name": "owner",
      "outputs": [
        {
          "internalType": "address",
          "name": "",
          "type": "address"
        }
      ],
      "stateMutability": "view",
      "type": "function"
    },
    {
      "inputs": [
        {
          "internalType": "uint256",
          "name": "tokenId",
          "type": "uint256"
        }
      ],
      "name": "ownerOf",
      "outputs": [
        {
          "internalType": "address",
          "name": "",
          "type": "address"
        }
      ],
      "stateMutability": "view",
      "type": "function"
    },
    {
      "inputs": [],
      "name": "paused",
      "outputs": [
        {
          "internalType": "bool",
          "name": "",
          "type": "bool"
        }
      ],
      "stateMutability": "view",
      "type": "function"
    },
    {
      "inputs": [],
      "name": "renounceOwnership",
      "outputs": [],
      "stateMutability": "nonpayable",
      "type": "function"
    },
    {
      "inputs": [
        {
          "internalType": "address",
          "name": "from",
          "type": "address"
        },
        {
          "internalType": "address",
          "name": "to",
          "type": "address"
        },
        {
          "internalType": "uint256",
          "name": "tokenId",
          "type": "uint256"
        }
      ],
      "name": "safeTransferFrom",
      "outputs": [],
      "stateMutability": "nonpayable",
      "type": "function"
    },
    {
      "inputs": [
        {
          "internalType": "address",
          "name": "from",
          "type": "address"
        },
        {
          "internalType": "address",
          "name": "to",
          "type": "address"
        },
        {
          "internalType": "uint256",
          "name": "tokenId",
          "type": "uint256"
        },
        {
          "internalType": "bytes",
          "name": "data",
          "type": "bytes"
        }
      ],
      "name": "safeTransferFrom",
      "outputs": [],
      "stateMutability": "nonpayable",
      "type": "function"
    },
    {
      "inputs": [
        {
          "internalType": "address",
          "name": "operator",
          "type": "address"
        },
        {
          "internalType": "bool",
          "name": "approved",
          "type": "bool"
        }
      ],
      "name": "setApprovalForAll",
      "outputs": [],
      "stateMutability": "nonpayable",
      "type": "function"
    },
    {
      "inputs": [
        {
          "internalType": "bytes4",
          "name": "interfaceId",
          "type": "bytes4"
        }
      ],
      "name": "supportsInterface",
      "outputs": [
        {
          "internalType": "bool",
          "name": "",
          "type": "bool"
        }
      ],
      "stateMutability": "view",
      "type": "function"
    },
    {
      "inputs": [],
      "name": "symbol",
      "outputs": [
        {
          "internalType": "string",
          "name": "",
          "type": "string"
        }
      ],
      "stateMutability": "view",
      "type": "function"
    },
    {
      "inputs": [
        {
          "internalType": "uint256",
          "name": "index",
          "type": "uint256"
        }
      ],
      "name": "tokenByIndex",
      "outputs": [
        {
          "internalType": "uint256",
          "name": "",
          "type": "uint256"
        }
      ],
      "stateMutability": "view",
      "type": "function"
    },
    {
      "inputs": [
        {
          "internalType": "address",
          "name": "owner",
          "type": "address"
        },
        {
          "internalType": "uint256",
          "name": "index",
          "type": "uint256"
        }
      ],
      "name": "tokenOfOwnerByIndex",
      "outputs": [
        {
          "internalType": "uint256",
          "name": "",
          "type": "uint256"
        }
      ],
      "stateMutability": "view",
      "type": "function"
    },
    {
      "inputs": [],
      "name": "totalSupply",
      "outputs": [
        {
          "internalType": "uint256",
          "name": "",
          "type": "uint256"
        }
      ],
      "stateMutability": "view",
      "type": "function"
    },
    {
      "inputs": [
        {
          "internalType": "address",
          "name": "from",
          "type": "address"
        },
        {
          "internalType": "address",
          "name": "to",
          "type": "address"
        },
        {
          "internalType": "uint256",
          "name": "tokenId",
          "type": "uint256"
        }
      ],
      "name": "transferFrom",
      "outputs": [],
      "stateMutability": "nonpayable",
      "type": "function"
    },
    {
      "inputs": [
        {
          "internalType": "address",
          "name": "newOwner",
          "type": "address"
        }
      ],
      "name": "transferOwnership",
      "outputs": [],
      "stateMutability": "nonpayable",
      "type": "function"
    },
    {
      "inputs": [
        {
          "internalType": "address",
          "name": "_to",
          "type": "address"
        },
        {
          "internalType": "uint256",
          "name": "_mintAmount",
          "type": "uint256"
        }
      ],
      "name": "mint",
      "outputs": [],
      "stateMutability": "payable",
      "type": "function"
    },
    {
      "inputs": [
        {
          "internalType": "address",
          "name": "_owner",
          "type": "address"
        }
      ],
      "name": "walletOfOwner",
      "outputs": [
        {
          "internalType": "uint256[]",
          "name": "",
          "type": "uint256[]"
        }
      ],
      "stateMutability": "view",
      "type": "function"
    },
    {
      "inputs": [
        {
          "internalType": "uint256",
          "name": "tokenId",
          "type": "uint256"
        }
      ],
      "name": "tokenURI",
      "outputs": [
        {
          "internalType": "string",
          "name": "",
          "type": "string"
        }
      ],
      "stateMutability": "view",
      "type": "function"
    },
    {
      "inputs": [
        {
          "internalType": "uint256",
          "name": "_newmaxMintAmount",
          "type": "uint256"
        }
      ],
      "name": "setmaxMintAmount",
      "outputs": [],
      "stateMutability": "nonpayable",
      "type": "function"
    },
    {
      "inputs": [
        {
          "internalType": "string",
          "name": "_newBaseURI",
          "type": "string"
        }
      ],
      "name": "setBaseURI",
      "outputs": [],
      "stateMutability": "nonpayable",
      "type": "function"
    },
    {
      "inputs": [
        {
          "internalType": "string",
          "name": "_newBaseExtension",
          "type": "string"
        }
      ],
      "name": "setBaseExtension",
      "outputs": [],
      "stateMutability": "nonpayable",
      "type": "function"
    },
    {
      "inputs": [
        {
          "internalType": "bool",
          "name": "_state",
          "type": "bool"
        }
      ],
      "name": "pause",
      "outputs": [],
      "stateMutability": "nonpayable",
      "type": "function"
    },
    {
      "inputs": [],
      "name": "withdraw",
      "outputs": [],
      "stateMutability": "payable",
      "type": "function"
    }
  ],
  "bytecode": "0x60806040526040518060400160405280600581526020017f2e6a736f6e000000000000000000000000000000000000000000000000000000815250600c90816200004a91906200047f565b506103e8600d556005600e556000600f60006101000a81548160ff0219169083151502179055503480156200007e57600080fd5b506040518060400160405280601681526020017f4e657432446576204e465420436f6c6c656374696f6e000000000000000000008152506040518060400160405280600381526020017f4e324400000000000000000000000000000000000000000000000000000000008152508160009081620000fc91906200047f565b5080600190816200010e91906200047f565b50505062000131620001256200013760201b60201c565b6200013f60201b60201c565b62000566565b600033905090565b6000600a60009054906101000a900473ffffffffffffffffffffffffffffffffffffffff16905081600a60006101000a81548173ffffffffffffffffffffffffffffffffffffffff021916908373ffffffffffffffffffffffffffffffffffffffff1602179055508173ffffffffffffffffffffffffffffffffffffffff168173ffffffffffffffffffffffffffffffffffffffff167f8be0079c531659141344cd1fd0a4f28419497f9722a3daafe3b4186f6b6457e060405160405180910390a35050565b600081519050919050565b7f4e487b7100000000000000000000000000000000000000000000000000000000600052604160045260246000fd5b7f4e487b7100000000000000000000000000000000000000000000000000000000600052602260045260246000fd5b600060028204905060018216806200028757607f821691505b6020821081036200029d576200029c6200023f565b5b50919050565b60008190508160005260206000209050919050565b60006020601f8301049050919050565b600082821b905092915050565b600060088302620003077fffffffffffffffffffffffffffffffffffffffffffffffffffffffffffffffff82620002c8565b620003138683620002c8565b95508019841693508086168417925050509392505050565b6000819050919050565b6000819050919050565b6000620003606200035a62000354846200032b565b62000335565b6200032b565b9050919050565b6000819050919050565b6200037c836200033f565b620003946200038b8262000367565b848454620002d5565b825550505050565b600090565b620003ab6200039c565b620003b881848462000371565b505050565b5b81811015620003e057620003d4600082620003a1565b600181019050620003be565b5050565b601f8211156200042f57620003f981620002a3565b6200040484620002b8565b8101602085101562000414578190505b6200042c6200042385620002b8565b830182620003bd565b50505b505050565b600082821c905092915050565b6000620004546000198460080262000434565b1980831691505092915050565b60006200046f838362000441565b9150826002028217905092915050565b6200048a8262000205565b67ffffffffffffffff811115620004a657620004a562000210565b5b620004b282546200026e565b620004bf828285620003e4565b600060209050601f831160018114620004f75760008415620004e2578287015190505b620004ee858262000461565b8655506200055e565b601f1984166200050786620002a3565b60005b8281101562000531578489015182556001820191506020850194506020810190506200050a565b868310156200055157848901516200054d601f89168262000441565b8355505b6001600288020188555050505b505050505050565b613f7a80620005766000396000f3fe6080604052600436106101d85760003560e01c80635c975abb11610102578063a22cb46511610095578063d5abeb0111610064578063d5abeb01146106a2578063da3ef23f146106cd578063e985e9c5146106f6578063f2fde38b14610733576101d8565b8063a22cb465146105e8578063b88d4fde14610611578063c66828621461063a578063c87b56dd14610665576101d8565b8063715018a6116100d1578063715018a6146105525780637f00c7a6146105695780638da5cb5b1461059257806395d89b41146105bd576101d8565b80635c975abb146104825780636352211e146104ad5780636c0360eb146104ea57806370a0823114610515576101d8565b806323b872dd1161017a57806342842e0e1161014957806342842e0e146103b6578063438b6300146103df5780634f6ccce71461041c57806355f804b314610459576101d8565b806323b872dd1461032a5780632f745c59146103535780633ccfd60b1461039057806340c10f191461039a576101d8565b8063081812fc116101b6578063081812fc1461026e578063095ea7b3146102ab57806318160ddd146102d4578063239c70ae146102ff576101d8565b806301ffc9a7146101dd57806302329a291461021a57806306fdde0314610243575b600080fd5b3480156101e957600080fd5b5061020460048036038101906101ff91906128ee565b61075c565b6040516102119190612936565b60405180910390f35b34801561022657600080fd5b50610241600480360381019061023c919061297d565b6107d6565b005b34801561024f57600080fd5b506102586107fb565b6040516102659190612a3a565b60405180910390f35b34801561027a57600080fd5b5061029560048036038101906102909190612a92565b61088d565b6040516102a29190612b00565b60405180910390f35b3480156102b757600080fd5b506102d260048036038101906102cd9190612b47565b6108d3565b005b3480156102e057600080fd5b506102e96109ea565b6040516102f69190612b96565b60405180910390f35b34801561030b57600080fd5b506103146109f7565b6040516103219190612b96565b60405180910390f35b34801561033657600080fd5b50610351600480360381019061034c9190612bb1565b6109fd565b005b34801561035f57600080fd5b5061037a60048036038101906103759190612b47565b610a5d565b6040516103879190612b96565b60405180910390f35b610398610b02565b005b6103b460048036038101906103af9190612b47565b610b4a565b005b3480156103c257600080fd5b506103dd60048036038101906103d89190612bb1565b610be2565b005b3480156103eb57600080fd5b5061040660048036038101906104019190612c04565b610c02565b6040516104139190612cef565b60405180910390f35b34801561042857600080fd5b50610443600480360381019061043e9190612a92565b610cb0565b6040516104509190612b96565b60405180910390f35b34801561046557600080fd5b50610480600480360381019061047b9190612e46565b610d21565b005b34801561048e57600080fd5b50610497610d3c565b6040516104a49190612936565b60405180910390f35b3480156104b957600080fd5b506104d460048036038101906104cf9190612a92565b610d4f565b6040516104e19190612b00565b60405180910390f35b3480156104f657600080fd5b506104ff610dd5565b60405161050c9190612a3a565b60405180910390f35b34801561052157600080fd5b5061053c60048036038101906105379190612c04565b610e63565b6040516105499190612b96565b60405180910390f35b34801561055e57600080fd5b50610567610f1a565b005b34801561057557600080fd5b50610590600480360381019061058b9190612a92565b610f2e565b005b34801561059e57600080fd5b506105a7610f40565b6040516105b49190612b00565b60405180910390f35b3480156105c957600080fd5b506105d2610f6a565b6040516105df9190612a3a565b60405180910390f35b3480156105f457600080fd5b5061060f600480360381019061060a9190612e8f565b610ffc565b005b34801561061d57600080fd5b5061063860048036038101906106339190612f70565b611012565b005b34801561064657600080fd5b5061064f611074565b60405161065c9190612a3a565b60405180910390f35b34801561067157600080fd5b5061068c60048036038101906106879190612a92565b611102565b6040516106999190612a3a565b60405180910390f35b3480156106ae57600080fd5b506106b76111ac565b6040516106c49190612b96565b60405180910390f35b3480156106d957600080fd5b506106f460048036038101906106ef9190612e46565b6111b2565b005b34801561070257600080fd5b5061071d60048036038101906107189190612ff3565b6111cd565b60405161072a9190612936565b60405180910390f35b34801561073f57600080fd5b5061075a60048036038101906107559190612c04565b611261565b005b60007f780e9d63000000000000000000000000000000000000000000000000000000007bffffffffffffffffffffffffffffffffffffffffffffffffffffffff1916827bffffffffffffffffffffffffffffffffffffffffffffffffffffffff191614806107cf57506107ce826112e4565b5b9050919050565b6107de6113c6565b80600f60006101000a81548160ff02191690831515021790555050565b60606000805461080a90613062565b80601f016020809104026020016040519081016040528092919081815260200182805461083690613062565b80156108835780601f1061085857610100808354040283529160200191610883565b820191906000526020600020905b81548152906001019060200180831161086657829003601f168201915b5050505050905090565b600061089882611444565b6004600083815260200190815260200160002060009054906101000a900473ffffffffffffffffffffffffffffffffffffffff169050919050565b60006108de82610d4f565b90508073ffffffffffffffffffffffffffffffffffffffff168373ffffffffffffffffffffffffffffffffffffffff160361094e576040517f08c379a000000000000000000000000000000000000000000000000000000000815260040161094590613105565b60405180910390fd5b8073ffffffffffffffffffffffffffffffffffffffff1661096d61148f565b73ffffffffffffffffffffffffffffffffffffffff16148061099c575061099b8161099661148f565b6111cd565b5b6109db576040517f08c379a00000000000000000000000000000000000000000000000000000000081526004016109d290613197565b60405180910390fd5b6109e58383611497565b505050565b6000600880549050905090565b600e5481565b610a0e610a0861148f565b82611550565b610a4d576040517f08c379a0000000000000000000000000000000000000000000000000000000008152600401610a4490613229565b60405180910390fd5b610a588383836115e5565b505050565b6000610a6883610e63565b8210610aa9576040517f08c379a0000000000000000000000000000000000000000000000000000000008152600401610aa0906132bb565b60405180910390fd5b600660008473ffffffffffffffffffffffffffffffffffffffff1673ffffffffffffffffffffffffffffffffffffffff168152602001908152602001600020600083815260200190815260200160002054905092915050565b610b0a6113c6565b3373ffffffffffffffffffffffffffffffffffffffff166108fc479081150290604051600060405180830381858888f19350505050610b4857600080fd5b565b6000610b546109ea565b9050600f60009054906101000a900460ff1615610b7057600080fd5b60008211610b7d57600080fd5b600e54821115610b8c57600080fd5b600d548282610b9b919061330a565b1115610ba657600080fd5b6000600190505b828111610bdc57610bc9848284610bc4919061330a565b6118de565b8080610bd49061333e565b915050610bad565b50505050565b610bfd83838360405180602001604052806000815250611012565b505050565b60606000610c0f83610e63565b905060008167ffffffffffffffff811115610c2d57610c2c612d1b565b5b604051908082528060200260200182016040528015610c5b5781602001602082028036833780820191505090505b50905060005b82811015610ca557610c738582610a5d565b828281518110610c8657610c85613386565b5b6020026020010181815250508080610c9d9061333e565b915050610c61565b508092505050919050565b6000610cba6109ea565b8210610cfb576040517f08c379a0000000000000000000000000000000000000000000000000000000008152600401610cf290613427565b60405180910390fd5b60088281548110610d0f57610d0e613386565b5b90600052602060002001549050919050565b610d296113c6565b80600b9081610d3891906135f3565b5050565b600f60009054906101000a900460ff1681565b600080610d5b836118fc565b9050600073ffffffffffffffffffffffffffffffffffffffff168173ffffffffffffffffffffffffffffffffffffffff1603610dcc576040517f08c379a0000000000000000000000000000000000000000000000000000000008152600401610dc390613711565b60405180910390fd5b80915050919050565b600b8054610de290613062565b80601f0160208091040260200160405190810160405280929190818152602001828054610e0e90613062565b8015610e5b5780601f10610e3057610100808354040283529160200191610e5b565b820191906000526020600020905b815481529060010190602001808311610e3e57829003601f168201915b505050505081565b60008073ffffffffffffffffffffffffffffffffffffffff168273ffffffffffffffffffffffffffffffffffffffff1603610ed3576040517f08c379a0000000000000000000000000000000000000000000000000000000008152600401610eca906137a3565b60405180910390fd5b600360008373ffffffffffffffffffffffffffffffffffffffff1673ffffffffffffffffffffffffffffffffffffffff168152602001908152602001600020549050919050565b610f226113c6565b610f2c6000611939565b565b610f366113c6565b80600e8190555050565b6000600a60009054906101000a900473ffffffffffffffffffffffffffffffffffffffff16905090565b606060018054610f7990613062565b80601f0160208091040260200160405190810160405280929190818152602001828054610fa590613062565b8015610ff25780601f10610fc757610100808354040283529160200191610ff2565b820191906000526020600020905b815481529060010190602001808311610fd557829003601f168201915b5050505050905090565b61100e61100761148f565b83836119ff565b5050565b61102361101d61148f565b83611550565b611062576040517f08c379a000000000000000000000000000000000000000000000000000000000815260040161105990613229565b60405180910390fd5b61106e84848484611b6b565b50505050565b600c805461108190613062565b80601f01602080910402602001604051908101604052809291908181526020018280546110ad90613062565b80156110fa5780601f106110cf576101008083540402835291602001916110fa565b820191906000526020600020905b8154815290600101906020018083116110dd57829003601f168201915b505050505081565b606061110d82611bc7565b61114c576040517f08c379a000000000000000000000000000000000000000000000000000000000815260040161114390613835565b60405180910390fd5b6000611156611c08565b9050600081511161117657604051806020016040528060008152506111a4565b8061118084611c45565b600c60405160200161119493929190613914565b6040516020818303038152906040525b915050919050565b600d5481565b6111ba6113c6565b80600c90816111c991906135f3565b5050565b6000600560008473ffffffffffffffffffffffffffffffffffffffff1673ffffffffffffffffffffffffffffffffffffffff16815260200190815260200160002060008373ffffffffffffffffffffffffffffffffffffffff1673ffffffffffffffffffffffffffffffffffffffff16815260200190815260200160002060009054906101000a900460ff16905092915050565b6112696113c6565b600073ffffffffffffffffffffffffffffffffffffffff168173ffffffffffffffffffffffffffffffffffffffff16036112d8576040517f08c379a00000000000000000000000000000000000000000000000000000000081526004016112cf906139b7565b60405180910390fd5b6112e181611939565b50565b60007f80ac58cd000000000000000000000000000000000000000000000000000000007bffffffffffffffffffffffffffffffffffffffffffffffffffffffff1916827bffffffffffffffffffffffffffffffffffffffffffffffffffffffff191614806113af57507f5b5e139f000000000000000000000000000000000000000000000000000000007bffffffffffffffffffffffffffffffffffffffffffffffffffffffff1916827bffffffffffffffffffffffffffffffffffffffffffffffffffffffff1916145b806113bf57506113be82611d13565b5b9050919050565b6113ce61148f565b73ffffffffffffffffffffffffffffffffffffffff166113ec610f40565b73ffffffffffffffffffffffffffffffffffffffff1614611442576040517f08c379a000000000000000000000000000000000000000000000000000000000815260040161143990613a23565b60405180910390fd5b565b61144d81611bc7565b61148c576040517f08c379a000000000000000000000000000000000000000000000000000000000815260040161148390613711565b60405180910390fd5b50565b600033905090565b816004600083815260200190815260200160002060006101000a81548173ffffffffffffffffffffffffffffffffffffffff021916908373ffffffffffffffffffffffffffffffffffffffff160217905550808273ffffffffffffffffffffffffffffffffffffffff1661150a83610d4f565b73ffffffffffffffffffffffffffffffffffffffff167f8c5be1e5ebec7d5bd14f71427d1e84f3dd0314c0f7b2291e5b200ac8c7c3b92560405160405180910390a45050565b60008061155c83610d4f565b90508073ffffffffffffffffffffffffffffffffffffffff168473ffffffffffffffffffffffffffffffffffffffff16148061159e575061159d81856111cd565b5b806115dc57508373ffffffffffffffffffffffffffffffffffffffff166115c48461088d565b73ffffffffffffffffffffffffffffffffffffffff16145b91505092915050565b8273ffffffffffffffffffffffffffffffffffffffff1661160582610d4f565b73ffffffffffffffffffffffffffffffffffffffff161461165b576040517f08c379a000000000000000000000000000000000000000000000000000000000815260040161165290613ab5565b60405180910390fd5b600073ffffffffffffffffffffffffffffffffffffffff168273ffffffffffffffffffffffffffffffffffffffff16036116ca576040517f08c379a00000000000000000000000000000000000000000000000000000000081526004016116c190613b47565b60405180910390fd5b6116d78383836001611d7d565b8273ffffffffffffffffffffffffffffffffffffffff166116f782610d4f565b73ffffffffffffffffffffffffffffffffffffffff161461174d576040517f08c379a000000000000000000000000000000000000000000000000000000000815260040161174490613ab5565b60405180910390fd5b6004600082815260200190815260200160002060006101000a81549073ffffffffffffffffffffffffffffffffffffffff02191690556001600360008573ffffffffffffffffffffffffffffffffffffffff1673ffffffffffffffffffffffffffffffffffffffff168152602001908152602001600020600082825403925050819055506001600360008473ffffffffffffffffffffffffffffffffffffffff1673ffffffffffffffffffffffffffffffffffffffff16815260200190815260200160002060008282540192505081905550816002600083815260200190815260200160002060006101000a81548173ffffffffffffffffffffffffffffffffffffffff021916908373ffffffffffffffffffffffffffffffffffffffff160217905550808273ffffffffffffffffffffffffffffffffffffffff168473ffffffffffffffffffffffffffffffffffffffff167fddf252ad1be2c89b69c2b068fc378daa952ba7f163c4a11628f55a4df523b3ef60405160405180910390a46118d98383836001611edb565b505050565b6118f8828260405180602001604052806000815250611ee1565b5050565b60006002600083815260200190815260200160002060009054906101000a900473ffffffffffffffffffffffffffffffffffffffff169050919050565b6000600a60009054906101000a900473ffffffffffffffffffffffffffffffffffffffff16905081600a60006101000a81548173ffffffffffffffffffffffffffffffffffffffff021916908373ffffffffffffffffffffffffffffffffffffffff1602179055508173ffffffffffffffffffffffffffffffffffffffff168173ffffffffffffffffffffffffffffffffffffffff167f8be0079c531659141344cd1fd0a4f28419497f9722a3daafe3b4186f6b6457e060405160405180910390a35050565b8173ffffffffffffffffffffffffffffffffffffffff168373ffffffffffffffffffffffffffffffffffffffff1603611a6d576040517f08c379a0000000000000000000000000000000000000000000000000000000008152600401611a6490613bb3565b60405180910390fd5b80600560008573ffffffffffffffffffffffffffffffffffffffff1673ffffffffffffffffffffffffffffffffffffffff16815260200190815260200160002060008473ffffffffffffffffffffffffffffffffffffffff1673ffffffffffffffffffffffffffffffffffffffff16815260200190815260200160002060006101000a81548160ff0219169083151502179055508173ffffffffffffffffffffffffffffffffffffffff168373ffffffffffffffffffffffffffffffffffffffff167f17307eab39ab6107e8899845ad3d59bd9653f200f220920489ca2b5937696c3183604051611b5e9190612936565b60405180910390a3505050565b611b768484846115e5565b611b8284848484611f3c565b611bc1576040517f08c379a0000000000000000000000000000000000000000000000000000000008152600401611bb890613c45565b60405180910390fd5b50505050565b60008073ffffffffffffffffffffffffffffffffffffffff16611be9836118fc565b73ffffffffffffffffffffffffffffffffffffffff1614159050919050565b60606040518060400160405280600581526020017f746573742f000000000000000000000000000000000000000000000000000000815250905090565b606060006001611c54846120c3565b01905060008167ffffffffffffffff811115611c7357611c72612d1b565b5b6040519080825280601f01601f191660200182016040528015611ca55781602001600182028036833780820191505090505b509050600082602001820190505b600115611d08578080600190039150507f3031323334353637383961626364656600000000000000000000000000000000600a86061a8153600a8581611cfc57611cfb613c65565b5b04945060008503611cb3575b819350505050919050565b60007f01ffc9a7000000000000000000000000000000000000000000000000000000007bffffffffffffffffffffffffffffffffffffffffffffffffffffffff1916827bffffffffffffffffffffffffffffffffffffffffffffffffffffffff1916149050919050565b611d8984848484612216565b6001811115611dcd576040517f08c379a0000000000000000000000000000000000000000000000000000000008152600401611dc490613d06565b60405180910390fd5b6000829050600073ffffffffffffffffffffffffffffffffffffffff168573ffffffffffffffffffffffffffffffffffffffff1603611e1457611e0f8161233c565b611e53565b8373ffffffffffffffffffffffffffffffffffffffff168573ffffffffffffffffffffffffffffffffffffffff1614611e5257611e518582612385565b5b5b600073ffffffffffffffffffffffffffffffffffffffff168473ffffffffffffffffffffffffffffffffffffffff1603611e9557611e90816124f2565b611ed4565b8473ffffffffffffffffffffffffffffffffffffffff168473ffffffffffffffffffffffffffffffffffffffff1614611ed357611ed284826125c3565b5b5b5050505050565b50505050565b611eeb8383612642565b611ef86000848484611f3c565b611f37576040517f08c379a0000000000000000000000000000000000000000000000000000000008152600401611f2e90613c45565b60405180910390fd5b505050565b6000611f5d8473ffffffffffffffffffffffffffffffffffffffff1661285f565b156120b6578373ffffffffffffffffffffffffffffffffffffffff1663150b7a02611f8661148f565b8786866040518563ffffffff1660e01b8152600401611fa89493929190613d7b565b6020604051808303816000875af1925050508015611fe457506040513d601f19601f82011682018060405250810190611fe19190613ddc565b60015b612066573d8060008114612014576040519150601f19603f3d011682016040523d82523d6000602084013e612019565b606091505b50600081510361205e576040517f08c379a000000000000000000000000000000000000000000000000000000000815260040161205590613c45565b60405180910390fd5b805181602001fd5b63150b7a0260e01b7bffffffffffffffffffffffffffffffffffffffffffffffffffffffff1916817bffffffffffffffffffffffffffffffffffffffffffffffffffffffff1916149150506120bb565b600190505b949350505050565b600080600090507a184f03e93ff9f4daa797ed6e38ed64bf6a1f0100000000000000008310612121577a184f03e93ff9f4daa797ed6e38ed64bf6a1f010000000000000000838161211757612116613c65565b5b0492506040810190505b6d04ee2d6d415b85acef8100000000831061215e576d04ee2d6d415b85acef8100000000838161215457612153613c65565b5b0492506020810190505b662386f26fc10000831061218d57662386f26fc10000838161218357612182613c65565b5b0492506010810190505b6305f5e10083106121b6576305f5e10083816121ac576121ab613c65565b5b0492506008810190505b61271083106121db5761271083816121d1576121d0613c65565b5b0492506004810190505b606483106121fe57606483816121f4576121f3613c65565b5b0492506002810190505b600a831061220d576001810190505b80915050919050565b600181111561233657600073ffffffffffffffffffffffffffffffffffffffff168473ffffffffffffffffffffffffffffffffffffffff16146122aa5780600360008673ffffffffffffffffffffffffffffffffffffffff1673ffffffffffffffffffffffffffffffffffffffff16815260200190815260200160002060008282546122a29190613e09565b925050819055505b600073ffffffffffffffffffffffffffffffffffffffff168373ffffffffffffffffffffffffffffffffffffffff16146123355780600360008573ffffffffffffffffffffffffffffffffffffffff1673ffffffffffffffffffffffffffffffffffffffff168152602001908152602001600020600082825461232d919061330a565b925050819055505b5b50505050565b6008805490506009600083815260200190815260200160002081905550600881908060018154018082558091505060019003906000526020600020016000909190919091505550565b6000600161239284610e63565b61239c9190613e09565b9050600060076000848152602001908152602001600020549050818114612481576000600660008673ffffffffffffffffffffffffffffffffffffffff1673ffffffffffffffffffffffffffffffffffffffff168152602001908152602001600020600084815260200190815260200160002054905080600660008773ffffffffffffffffffffffffffffffffffffffff1673ffffffffffffffffffffffffffffffffffffffff168152602001908152602001600020600084815260200190815260200160002081905550816007600083815260200190815260200160002081905550505b6007600084815260200190815260200160002060009055600660008573ffffffffffffffffffffffffffffffffffffffff1673ffffffffffffffffffffffffffffffffffffffff16815260200190815260200160002060008381526020019081526020016000206000905550505050565b600060016008805490506125069190613e09565b905060006009600084815260200190815260200160002054905060006008838154811061253657612535613386565b5b90600052602060002001549050806008838154811061255857612557613386565b5b9060005260206000200181905550816009600083815260200190815260200160002081905550600960008581526020019081526020016000206000905560088054806125a7576125a6613e3d565b5b6001900381819060005260206000200160009055905550505050565b60006125ce83610e63565b905081600660008573ffffffffffffffffffffffffffffffffffffffff1673ffffffffffffffffffffffffffffffffffffffff168152602001908152602001600020600083815260200190815260200160002081905550806007600084815260200190815260200160002081905550505050565b600073ffffffffffffffffffffffffffffffffffffffff168273ffffffffffffffffffffffffffffffffffffffff16036126b1576040517f08c379a00000000000000000000000000000000000000000000000000000000081526004016126a890613eb8565b60405180910390fd5b6126ba81611bc7565b156126fa576040517f08c379a00000000000000000000000000000000000000000000000000000000081526004016126f190613f24565b60405180910390fd5b612708600083836001611d7d565b61271181611bc7565b15612751576040517f08c379a000000000000000000000000000000000000000000000000000000000815260040161274890613f24565b60405180910390fd5b6001600360008473ffffffffffffffffffffffffffffffffffffffff1673ffffffffffffffffffffffffffffffffffffffff16815260200190815260200160002060008282540192505081905550816002600083815260200190815260200160002060006101000a81548173ffffffffffffffffffffffffffffffffffffffff021916908373ffffffffffffffffffffffffffffffffffffffff160217905550808273ffffffffffffffffffffffffffffffffffffffff16600073ffffffffffffffffffffffffffffffffffffffff167fddf252ad1be2c89b69c2b068fc378daa952ba7f163c4a11628f55a4df523b3ef60405160405180910390a461285b600083836001611edb565b5050565b6000808273ffffffffffffffffffffffffffffffffffffffff163b119050919050565b6000604051905090565b600080fd5b600080fd5b60007fffffffff0000000000000000000000000000000000000000000000000000000082169050919050565b6128cb81612896565b81146128d657600080fd5b50565b6000813590506128e8816128c2565b92915050565b6000602082840312156129045761290361288c565b5b6000612912848285016128d9565b91505092915050565b60008115159050919050565b6129308161291b565b82525050565b600060208201905061294b6000830184612927565b92915050565b61295a8161291b565b811461296557600080fd5b50565b60008135905061297781612951565b92915050565b6000602082840312156129935761299261288c565b5b60006129a184828501612968565b91505092915050565b600081519050919050565b600082825260208201905092915050565b60005b838110156129e45780820151818401526020810190506129c9565b60008484015250505050565b6000601f19601f8301169050919050565b6000612a0c826129aa565b612a1681856129b5565b9350612a268185602086016129c6565b612a2f816129f0565b840191505092915050565b60006020820190508181036000830152612a548184612a01565b905092915050565b6000819050919050565b612a6f81612a5c565b8114612a7a57600080fd5b50565b600081359050612a8c81612a66565b92915050565b600060208284031215612aa857612aa761288c565b5b6000612ab684828501612a7d565b91505092915050565b600073ffffffffffffffffffffffffffffffffffffffff82169050919050565b6000612aea82612abf565b9050919050565b612afa81612adf565b82525050565b6000602082019050612b156000830184612af1565b92915050565b612b2481612adf565b8114612b2f57600080fd5b50565b600081359050612b4181612b1b565b92915050565b60008060408385031215612b5e57612b5d61288c565b5b6000612b6c85828601612b32565b9250506020612b7d85828601612a7d565b9150509250929050565b612b9081612a5c565b82525050565b6000602082019050612bab6000830184612b87565b92915050565b600080600060608486031215612bca57612bc961288c565b5b6000612bd886828701612b32565b9350506020612be986828701612b32565b9250506040612bfa86828701612a7d565b9150509250925092565b600060208284031215612c1a57612c1961288c565b5b6000612c2884828501612b32565b91505092915050565b600081519050919050565b600082825260208201905092915050565b6000819050602082019050919050565b612c6681612a5c565b82525050565b6000612c788383612c5d565b60208301905092915050565b6000602082019050919050565b6000612c9c82612c31565b612ca68185612c3c565b9350612cb183612c4d565b8060005b83811015612ce2578151612cc98882612c6c565b9750612cd483612c84565b925050600181019050612cb5565b5085935050505092915050565b60006020820190508181036000830152612d098184612c91565b905092915050565b600080fd5b600080fd5b7f4e487b7100000000000000000000000000000000000000000000000000000000600052604160045260246000fd5b612d53826129f0565b810181811067ffffffffffffffff82111715612d7257612d71612d1b565b5b80604052505050565b6000612d85612882565b9050612d918282612d4a565b919050565b600067ffffffffffffffff821115612db157612db0612d1b565b5b612dba826129f0565b9050602081019050919050565b82818337600083830152505050565b6000612de9612de484612d96565b612d7b565b905082815260208101848484011115612e0557612e04612d16565b5b612e10848285612dc7565b509392505050565b600082601f830112612e2d57612e2c612d11565b5b8135612e3d848260208601612dd6565b91505092915050565b600060208284031215612e5c57612e5b61288c565b5b600082013567ffffffffffffffff811115612e7a57612e79612891565b5b612e8684828501612e18565b91505092915050565b60008060408385031215612ea657612ea561288c565b5b6000612eb485828601612b32565b9250506020612ec585828601612968565b9150509250929050565b600067ffffffffffffffff821115612eea57612ee9612d1b565b5b612ef3826129f0565b9050602081019050919050565b6000612f13612f0e84612ecf565b612d7b565b905082815260208101848484011115612f2f57612f2e612d16565b5b612f3a848285612dc7565b509392505050565b600082601f830112612f5757612f56612d11565b5b8135612f67848260208601612f00565b91505092915050565b60008060008060808587031215612f8a57612f8961288c565b5b6000612f9887828801612b32565b9450506020612fa987828801612b32565b9350506040612fba87828801612a7d565b925050606085013567ffffffffffffffff811115612fdb57612fda612891565b5b612fe787828801612f42565b91505092959194509250565b6000806040838503121561300a5761300961288c565b5b600061301885828601612b32565b925050602061302985828601612b32565b9150509250929050565b7f4e487b7100000000000000000000000000000000000000000000000000000000600052602260045260246000fd5b6000600282049050600182168061307a57607f821691505b60208210810361308d5761308c613033565b5b50919050565b7f4552433732313a20617070726f76616c20746f2063757272656e74206f776e6560008201527f7200000000000000000000000000000000000000000000000000000000000000602082015250565b60006130ef6021836129b5565b91506130fa82613093565b604082019050919050565b6000602082019050818103600083015261311e816130e2565b9050919050565b7f4552433732313a20617070726f76652063616c6c6572206973206e6f7420746f60008201527f6b656e206f776e6572206f7220617070726f76656420666f7220616c6c000000602082015250565b6000613181603d836129b5565b915061318c82613125565b604082019050919050565b600060208201905081810360008301526131b081613174565b9050919050565b7f4552433732313a2063616c6c6572206973206e6f7420746f6b656e206f776e6560008201527f72206f7220617070726f76656400000000000000000000000000000000000000602082015250565b6000613213602d836129b5565b915061321e826131b7565b604082019050919050565b6000602082019050818103600083015261324281613206565b9050919050565b7f455243373231456e756d657261626c653a206f776e657220696e646578206f7560008201527f74206f6620626f756e6473000000000000000000000000000000000000000000602082015250565b60006132a5602b836129b5565b91506132b082613249565b604082019050919050565b600060208201905081810360008301526132d481613298565b9050919050565b7f4e487b7100000000000000000000000000000000000000000000000000000000600052601160045260246000fd5b600061331582612a5c565b915061332083612a5c565b9250828201905080821115613338576133376132db565b5b92915050565b600061334982612a5c565b91507fffffffffffffffffffffffffffffffffffffffffffffffffffffffffffffffff820361337b5761337a6132db565b5b600182019050919050565b7f4e487b7100000000000000000000000000000000000000000000000000000000600052603260045260246000fd5b7f455243373231456e756d657261626c653a20676c6f62616c20696e646578206f60008201527f7574206f6620626f756e64730000000000000000000000000000000000000000602082015250565b6000613411602c836129b5565b915061341c826133b5565b604082019050919050565b6000602082019050818103600083015261344081613404565b9050919050565b60008190508160005260206000209050919050565b60006020601f8301049050919050565b600082821b905092915050565b6000600883026134a97fffffffffffffffffffffffffffffffffffffffffffffffffffffffffffffffff8261346c565b6134b3868361346c565b95508019841693508086168417925050509392505050565b6000819050919050565b60006134f06134eb6134e684612a5c565b6134cb565b612a5c565b9050919050565b6000819050919050565b61350a836134d5565b61351e613516826134f7565b848454613479565b825550505050565b600090565b613533613526565b61353e818484613501565b505050565b5b818110156135625761355760008261352b565b600181019050613544565b5050565b601f8211156135a75761357881613447565b6135818461345c565b81016020851015613590578190505b6135a461359c8561345c565b830182613543565b50505b505050565b600082821c905092915050565b60006135ca600019846008026135ac565b1980831691505092915050565b60006135e383836135b9565b9150826002028217905092915050565b6135fc826129aa565b67ffffffffffffffff81111561361557613614612d1b565b5b61361f8254613062565b61362a828285613566565b600060209050601f83116001811461365d576000841561364b578287015190505b61365585826135d7565b8655506136bd565b601f19841661366b86613447565b60005b828110156136935784890151825560018201915060208501945060208101905061366e565b868310156136b057848901516136ac601f8916826135b9565b8355505b6001600288020188555050505b505050505050565b7f4552433732313a20696e76616c696420746f6b656e2049440000000000000000600082015250565b60006136fb6018836129b5565b9150613706826136c5565b602082019050919050565b6000602082019050818103600083015261372a816136ee565b9050919050565b7f4552433732313a2061646472657373207a65726f206973206e6f74206120766160008201527f6c6964206f776e65720000000000000000000000000000000000000000000000602082015250565b600061378d6029836129b5565b915061379882613731565b604082019050919050565b600060208201905081810360008301526137bc81613780565b9050919050565b7f4552433732314d657461646174613a2055524920717565727920666f72206e6f60008201527f6e6578697374656e7420746f6b656e0000000000000000000000000000000000602082015250565b600061381f602f836129b5565b915061382a826137c3565b604082019050919050565b6000602082019050818103600083015261384e81613812565b9050919050565b600081905092915050565b600061386b826129aa565b6138758185613855565b93506138858185602086016129c6565b80840191505092915050565b6000815461389e81613062565b6138a88186613855565b945060018216600081146138c357600181146138d85761390b565b60ff198316865281151582028601935061390b565b6138e185613447565b60005b83811015613903578154818901526001820191506020810190506138e4565b838801955050505b50505092915050565b60006139208286613860565b915061392c8285613860565b91506139388284613891565b9150819050949350505050565b7f4f776e61626c653a206e6577206f776e657220697320746865207a65726f206160008201527f6464726573730000000000000000000000000000000000000000000000000000602082015250565b60006139a16026836129b5565b91506139ac82613945565b604082019050919050565b600060208201905081810360008301526139d081613994565b9050919050565b7f4f776e61626c653a2063616c6c6572206973206e6f7420746865206f776e6572600082015250565b6000613a0d6020836129b5565b9150613a18826139d7565b602082019050919050565b60006020820190508181036000830152613a3c81613a00565b9050919050565b7f4552433732313a207472616e736665722066726f6d20696e636f72726563742060008201527f6f776e6572000000000000000000000000000000000000000000000000000000602082015250565b6000613a9f6025836129b5565b9150613aaa82613a43565b604082019050919050565b60006020820190508181036000830152613ace81613a92565b9050919050565b7f4552433732313a207472616e7366657220746f20746865207a65726f2061646460008201527f7265737300000000000000000000000000000000000000000000000000000000602082015250565b6000613b316024836129b5565b9150613b3c82613ad5565b604082019050919050565b60006020820190508181036000830152613b6081613b24565b9050919050565b7f4552433732313a20617070726f766520746f2063616c6c657200000000000000600082015250565b6000613b9d6019836129b5565b9150613ba882613b67565b602082019050919050565b60006020820190508181036000830152613bcc81613b90565b9050919050565b7f4552433732313a207472616e7366657220746f206e6f6e20455243373231526560008201527f63656976657220696d706c656d656e7465720000000000000000000000000000602082015250565b6000613c2f6032836129b5565b9150613c3a82613bd3565b604082019050919050565b60006020820190508181036000830152613c5e81613c22565b9050919050565b7f4e487b7100000000000000000000000000000000000000000000000000000000600052601260045260246000fd5b7f455243373231456e756d657261626c653a20636f6e736563757469766520747260008201527f616e7366657273206e6f7420737570706f727465640000000000000000000000602082015250565b6000613cf06035836129b5565b9150613cfb82613c94565b604082019050919050565b60006020820190508181036000830152613d1f81613ce3565b9050919050565b600081519050919050565b600082825260208201905092915050565b6000613d4d82613d26565b613d578185613d31565b9350613d678185602086016129c6565b613d70816129f0565b840191505092915050565b6000608082019050613d906000830187612af1565b613d9d6020830186612af1565b613daa6040830185612b87565b8181036060830152613dbc8184613d42565b905095945050505050565b600081519050613dd6816128c2565b92915050565b600060208284031215613df257613df161288c565b5b6000613e0084828501613dc7565b91505092915050565b6000613e1482612a5c565b9150613e1f83612a5c565b9250828203905081811115613e3757613e366132db565b5b92915050565b7f4e487b7100000000000000000000000000000000000000000000000000000000600052603160045260246000fd5b7f4552433732313a206d696e7420746f20746865207a65726f2061646472657373600082015250565b6000613ea26020836129b5565b9150613ead82613e6c565b602082019050919050565b60006020820190508181036000830152613ed181613e95565b9050919050565b7f4552433732313a20746f6b656e20616c7265616479206d696e74656400000000600082015250565b6000613f0e601c836129b5565b9150613f1982613ed8565b602082019050919050565b60006020820190508181036000830152613f3d81613f01565b905091905056fea2646970667358221220a24a97805cdf79c73e2c2179af51762f3c7fbf6d2044dfcabe20f6721ed81c5764736f6c63430008110033",
  "immutableReferences": {},
  "source": "pragma solidity ^0.8.17;\n\n\nimport \"@openzeppelin/contracts/access/Ownable.sol\";\nimport \"@openzeppelin/contracts/token/ERC721/extensions/ERC721Enumerable.sol\";\n\n\n\ncontract Collection is ERC721Enumerable, Ownable {\n\n    \n    using Strings for uint256;\n    string public baseURI;\n    string public baseExtension = \".json\";\n    uint256 public maxSupply = 1000;\n    uint256 public maxMintAmount = 5;\n    bool public paused = false;\n\n    constructor() ERC721(\"Net2Dev NFT Collection\", \"N2D\") {}\n\n\n    function _baseURI() internal view virtual override returns (string memory) {\n    return \"test/\";\n\n    }\n    \n    function mint(address _to, uint256 _mintAmount) public payable {\n            uint256 supply = totalSupply();\n            require(!paused);\n            require(_mintAmount > 0);\n            require(_mintAmount <= maxMintAmount);\n            require(supply + _mintAmount <= maxSupply);\n            \n            for (uint256 i = 1; i <= _mintAmount; i++) {\n                _safeMint(_to, supply + i);\n            }\n    }\n\n\n        function walletOfOwner(address _owner)\n        public\n        view\n        returns (uint256[] memory)\n        {\n            uint256 ownerTokenCount = balanceOf(_owner);\n            uint256[] memory tokenIds = new uint256[](ownerTokenCount);\n            for (uint256 i; i < ownerTokenCount; i++) {\n                tokenIds[i] = tokenOfOwnerByIndex(_owner, i);\n            }\n            return tokenIds;\n        }\n    \n        \n        function tokenURI(uint256 tokenId)\n        public\n        view\n        virtual\n        override\n        returns (string memory) {\n            require(\n                _exists(tokenId),\n                \"ERC721Metadata: URI query for nonexistent token\"\n                );\n                \n                string memory currentBaseURI = _baseURI();\n                return\n                bytes(currentBaseURI).length > 0 \n                ? string(abi.encodePacked(currentBaseURI, tokenId.toString(), baseExtension))\n                : \"\";\n        }\n        // only owner\n        \n        function setmaxMintAmount(uint256 _newmaxMintAmount) public onlyOwner() {\n            maxMintAmount = _newmaxMintAmount;\n        }\n        \n        function setBaseURI(string memory _newBaseURI) public onlyOwner() {\n            baseURI = _newBaseURI;\n        }\n        \n        function setBaseExtension(string memory _newBaseExtension) public onlyOwner() {\n            baseExtension = _newBaseExtension;\n        }\n        \n        function pause(bool _state) public onlyOwner() {\n            paused = _state;\n        }\n        \n        function withdraw() public payable onlyOwner() {\n            require(payable(msg.sender).send(address(this).balance));\n        }\n}",
  "sourcePath": "/Users/cobra/Desktop/coh-nft-bridge/contracts/SampleCollection.sol",
  "compiler": {
    "name": "solc",
    "version": "0.8.17+commit.8df45f5f.Emscripten.clang"
  },
  "schemaVersion": "3.4.11",
  "updatedAt": "2023-01-16T17:40:21.349Z",
  "devdoc": {
    "kind": "dev",
    "methods": {
      "approve(address,uint256)": {
        "details": "See {IERC721-approve}."
      },
      "balanceOf(address)": {
        "details": "See {IERC721-balanceOf}."
      },
      "getApproved(uint256)": {
        "details": "See {IERC721-getApproved}."
      },
      "isApprovedForAll(address,address)": {
        "details": "See {IERC721-isApprovedForAll}."
      },
      "name()": {
        "details": "See {IERC721Metadata-name}."
      },
      "owner()": {
        "details": "Returns the address of the current owner."
      },
      "ownerOf(uint256)": {
        "details": "See {IERC721-ownerOf}."
      },
      "renounceOwnership()": {
        "details": "Leaves the contract without owner. It will not be possible to call `onlyOwner` functions anymore. Can only be called by the current owner. NOTE: Renouncing ownership will leave the contract without an owner, thereby removing any functionality that is only available to the owner."
      },
      "safeTransferFrom(address,address,uint256)": {
        "details": "See {IERC721-safeTransferFrom}."
      },
      "safeTransferFrom(address,address,uint256,bytes)": {
        "details": "See {IERC721-safeTransferFrom}."
      },
      "setApprovalForAll(address,bool)": {
        "details": "See {IERC721-setApprovalForAll}."
      },
      "supportsInterface(bytes4)": {
        "details": "See {IERC165-supportsInterface}."
      },
      "symbol()": {
        "details": "See {IERC721Metadata-symbol}."
      },
      "tokenByIndex(uint256)": {
        "details": "See {IERC721Enumerable-tokenByIndex}."
      },
      "tokenOfOwnerByIndex(address,uint256)": {
        "details": "See {IERC721Enumerable-tokenOfOwnerByIndex}."
      },
      "tokenURI(uint256)": {
        "details": "See {IERC721Metadata-tokenURI}."
      },
      "totalSupply()": {
        "details": "See {IERC721Enumerable-totalSupply}."
      },
      "transferFrom(address,address,uint256)": {
        "details": "See {IERC721-transferFrom}."
      },
      "transferOwnership(address)": {
        "details": "Transfers ownership of the contract to a new account (`newOwner`). Can only be called by the current owner."
      }
    },
    "version": 1
  },
  "userdoc": {
    "kind": "user",
    "methods": {},
    "version": 1
  }
}